:03000000020AC32E
:0C0AC300787FE4F6D8FD75812F020B0A45
:100BB000101E000000000000000000000000000007
:100BC0000000100A0000000000000000000000000B
:100BD00000000000022E0000021C000002080000BD
:040BE000021A0000F5
:100BE500758901758CFF758A9CD2A9D2AFD28C22EA
:100B4F00751E00751F0A7520007521097522007525
:100B5F002308752400752507752600752706752847
:100B6F0000752905752A00752B04752C00752D034A
:100B7F00750A00750B03750C00750D04750E007565
:100B8F000F05751000751106751200751307751492
:100B9F000075150875160075170975180075190A6F
:010BAF002223
:0A0BF500120BE5120B4FD28080FEB8
:03000B00020800E8
:10080000C0E0C0D075D000C000C004C005C006C0A4
:0108100007E0
:10081100758CFF758A9C052FE52F7002052ED395E7
:100821000BE52E950A5002D2A7D3E52F950BE52EA5
:10083100950A4002C2A7D3E52F950DE52E950C50E0
:1008410002D2A6D3E52F950DE52E950C4002C2A646
:10085100D3E52F950FE52E950E5002D2A5D3E52FA6
:10086100950FE52E950E4002C2A5D3E52F9511E512
:100871002E95105002D2A4D3E52F9511E52E951097
:100881004002C2A4D3E52F9513E52E95125002D252
:10089100A3D3E52F9513E52E95124002C2A3D3E50C
:1008A1002F9515E52E95145002D2A2D3E52F95155B
:1008B100E52E95144002C2A2D3E52F9517E52E959A
:1008C100165002D2A1D3E52F9517E52E95164002B9
:1008D100C2A1D3E52F9519E52E95185002D2A0D3C8
:1008E100E52F9519E52E95184002C2A0D3E52F9565
:1008F1001FE52E951E5002D280D3E52F951FE52EC0
:10090100951E4002C280D3E52F9521E52E952050FA
:1009110002D281D3E52F9521E52E95204002C28197
:10092100D3E52F9523E52E95225002D282D3E52FD0
:100931009523E52E95224002C282D3E52F9525E528
:100941002E95245002D283D3E52F9525E52E9524AB
:100951004002C283D3E52F9527E52E95265002D27A
:1009610084D3E52F9527E52E95264002C284D3E551
:100971002F9529E52E95285002D285D3E52F95296B
:10098100E52E95284002C285D3E52F952BE52E95BE
:100991002A5002D286D3E52F952BE52E952A4002C7
:1009A100C286D3E52F952DE52E952C5002D287D303
:1009B100E52F952DE52E952C4002C287E52F640A7F
:1009C100452E700CF52EF52F051BE51B7002051A3F
:1009D100E51B640A451A6003020AB4F51AF51BE522
:1009E1002D640A452C7005F51C751D01E51F640A6F
:1009F100451E7004F51CF51DE51D451C7057FE7F55
:100A010007EF25E0241CF8E6FC08E6FDEF25E024CD
:100A11001EF8A60408A605EF1F70011EEF4E70E137
:100A2100E51F151F7002151E7E007F00EF25E024D3
:100A31000CF8E6FC08E6FDEF25E0240AF8A6040818
:100A4100A6050FBF00010EEF64074E70DFE5191513
:100A51001970021518E51D6401451C7056FEFFEF63
:100A610025E02420F8E6FC08E6FDEF25E0241EF849
:100A7100A60408A6050FBF00010EEF64074E70DF44
:100A8100E52D152D7002152C7E007F07EF25E02442
:100A910008F8E6FC08E6FDEF25E0240AF8A60408BC
:100AA100A605EF1F70011EEF4E70E1E50B150B70EF
:030AB10002150A21
:0F0AB400D007D006D005D004D000D0D0D0E0328B
:100ACF00020BF5E493A3F8E493A34003F68001F23D
:100ADF0008DFF48029E493A3F85407240CC8C33328
:100AEF00C4540F4420C8834004F456800146F6DFF7
:100AFF00E4800B0102040810204080900BB0E47ECC
:100B0F00019360BCA3FF543F30E509541FFEE493EB
:100B1F00A360010ECF54C025E060A840B8E493A3B2
:100B2F00FAE493A3F8E493A3C8C582C8CAC583CADD
:100B3F00F0A3C8C582C8CAC583CADFE9DEE780BE95
:010BE4000010
:00000001FF
